{
  "contractName": "Crowdfunding",
  "abi": [
    {
      "anonymous": false,
      "inputs": [
        {
          "indexed": false,
          "internalType": "uint256",
          "name": "id",
          "type": "uint256"
        },
        {
          "indexed": false,
          "internalType": "string",
          "name": "name",
          "type": "string"
        },
        {
          "indexed": false,
          "internalType": "string",
          "name": "description",
          "type": "string"
        },
        {
          "indexed": false,
          "internalType": "uint256",
          "name": "deadline",
          "type": "uint256"
        },
        {
          "indexed": false,
          "internalType": "address",
          "name": "creator",
          "type": "address"
        }
      ],
      "name": "CampaignCreated",
      "type": "event"
    },
    {
      "anonymous": false,
      "inputs": [
        {
          "indexed": false,
          "internalType": "uint256",
          "name": "campaignId",
          "type": "uint256"
        },
        {
          "indexed": false,
          "internalType": "address",
          "name": "contributor",
          "type": "address"
        },
        {
          "indexed": false,
          "internalType": "uint256",
          "name": "amount",
          "type": "uint256"
        }
      ],
      "name": "ContributionReceived",
      "type": "event"
    },
    {
      "inputs": [
        {
          "internalType": "uint256",
          "name": "",
          "type": "uint256"
        }
      ],
      "name": "campaigns",
      "outputs": [
        {
          "internalType": "uint256",
          "name": "id",
          "type": "uint256"
        },
        {
          "internalType": "string",
          "name": "name",
          "type": "string"
        },
        {
          "internalType": "string",
          "name": "description",
          "type": "string"
        },
        {
          "internalType": "uint256",
          "name": "deadline",
          "type": "uint256"
        },
        {
          "internalType": "uint256",
          "name": "fundsRaised",
          "type": "uint256"
        },
        {
          "internalType": "address payable",
          "name": "creator",
          "type": "address"
        },
        {
          "internalType": "bool",
          "name": "active",
          "type": "bool"
        }
      ],
      "stateMutability": "view",
      "type": "function",
      "constant": true
    },
    {
      "inputs": [],
      "name": "totalCampaigns",
      "outputs": [
        {
          "internalType": "uint256",
          "name": "",
          "type": "uint256"
        }
      ],
      "stateMutability": "view",
      "type": "function",
      "constant": true
    },
    {
      "inputs": [
        {
          "internalType": "string",
          "name": "name",
          "type": "string"
        },
        {
          "internalType": "string",
          "name": "description",
          "type": "string"
        },
        {
          "internalType": "uint256",
          "name": "duration",
          "type": "uint256"
        }
      ],
      "name": "createCampaign",
      "outputs": [],
      "stateMutability": "nonpayable",
      "type": "function"
    },
    {
      "inputs": [
        {
          "internalType": "uint256",
          "name": "campaignId",
          "type": "uint256"
        }
      ],
      "name": "contribute",
      "outputs": [],
      "stateMutability": "payable",
      "type": "function",
      "payable": true
    },
    {
      "inputs": [
        {
          "internalType": "uint256",
          "name": "campaignId",
          "type": "uint256"
        }
      ],
      "name": "checkCampaignStatus",
      "outputs": [
        {
          "internalType": "bool",
          "name": "",
          "type": "bool"
        }
      ],
      "stateMutability": "view",
      "type": "function",
      "constant": true
    },
    {
      "inputs": [
        {
          "internalType": "uint256",
          "name": "campaignId",
          "type": "uint256"
        }
      ],
      "name": "getCampaignDetails",
      "outputs": [
        {
          "internalType": "string",
          "name": "name",
          "type": "string"
        },
        {
          "internalType": "string",
          "name": "description",
          "type": "string"
        },
        {
          "internalType": "uint256",
          "name": "deadline",
          "type": "uint256"
        },
        {
          "internalType": "uint256",
          "name": "fundsRaised",
          "type": "uint256"
        },
        {
          "internalType": "address",
          "name": "creator",
          "type": "address"
        },
        {
          "internalType": "bool",
          "name": "active",
          "type": "bool"
        }
      ],
      "stateMutability": "view",
      "type": "function",
      "constant": true
    },
    {
      "inputs": [
        {
          "internalType": "uint256",
          "name": "campaignId",
          "type": "uint256"
        }
      ],
      "name": "endCampaign",
      "outputs": [],
      "stateMutability": "nonpayable",
      "type": "function"
    }
  ],
  "bytecode": "0x608060405234801561001057600080fd5b506114f3806100206000396000f3fe6080604052600436106100705760003560e01c8063c1cbbca71161004e578063c1cbbca714610120578063d993de621461013c578063dd0408ae1461017e578063ffa56a57146101a757610070565b806302932f5614610075578063141961bc146100a057806370041d10146100e3575b600080fd5b34801561008157600080fd5b5061008a6101d0565b604051610097919061098c565b60405180910390f35b3480156100ac57600080fd5b506100c760048036038101906100c291906109e7565b6101d6565b6040516100da9796959493929190610b00565b60405180910390f35b3480156100ef57600080fd5b5061010a600480360381019061010591906109e7565b610355565b6040516101179190610b7d565b60405180910390f35b61013a600480360381019061013591906109e7565b610393565b005b34801561014857600080fd5b50610163600480360381019061015e91906109e7565b610548565b60405161017596959493929190610bb9565b60405180910390f35b34801561018a57600080fd5b506101a560048036038101906101a091906109e7565b6106de565b005b3480156101b357600080fd5b506101ce60048036038101906101c99190610d5d565b6107ed565b005b60015481565b60006020528060005260406000206000915090508060000154908060010180546101ff90610e17565b80601f016020809104026020016040519081016040528092919081815260200182805461022b90610e17565b80156102785780601f1061024d57610100808354040283529160200191610278565b820191906000526020600020905b81548152906001019060200180831161025b57829003601f168201915b50505050509080600201805461028d90610e17565b80601f01602080910402602001604051908101604052809291908181526020018280546102b990610e17565b80156103065780601f106102db57610100808354040283529160200191610306565b820191906000526020600020905b8154815290600101906020018083116102e957829003601f168201915b5050505050908060030154908060040154908060050160009054906101000a900473ffffffffffffffffffffffffffffffffffffffff16908060050160149054906101000a900460ff16905087565b6000806000808481526020019081526020016000209050806003015442118061038b575068056bc75e2d63100000816004015410155b915050919050565b600080600083815260200190815260200160002090508060050160149054906101000a900460ff166103fa576040517f08c379a00000000000000000000000000000000000000000000000000000000081526004016103f190610eba565b60405180910390fd5b80600301544210610440576040517f08c379a000000000000000000000000000000000000000000000000000000000815260040161043790610f26565b60405180910390fd5b60003411610483576040517f08c379a000000000000000000000000000000000000000000000000000000000815260040161047a90610fb8565b60405180910390fd5b348160040160008282546104979190611007565b925050819055508060050160009054906101000a900473ffffffffffffffffffffffffffffffffffffffff1673ffffffffffffffffffffffffffffffffffffffff166108fc349081150290604051600060405180830381858888f19350505050158015610508573d6000803e3d6000fd5b507f865c884d49c8cecaef108efb20f7d282f26c0f9b0d24dd48e5592d4e02ec658d82333460405161053c9392919061103b565b60405180910390a15050565b606080600080600080600080600089815260200190815260200160002090508060010181600201826003015483600401548460050160009054906101000a900473ffffffffffffffffffffffffffffffffffffffff168560050160149054906101000a900460ff168580546105bc90610e17565b80601f01602080910402602001604051908101604052809291908181526020018280546105e890610e17565b80156106355780601f1061060a57610100808354040283529160200191610635565b820191906000526020600020905b81548152906001019060200180831161061857829003601f168201915b5050505050955084805461064890610e17565b80601f016020809104026020016040519081016040528092919081815260200182805461067490610e17565b80156106c15780601f10610696576101008083540402835291602001916106c1565b820191906000526020600020905b8154815290600101906020018083116106a457829003601f168201915b505050505094509650965096509650965096505091939550919395565b600080600083815260200190815260200160002090508060050160009054906101000a900473ffffffffffffffffffffffffffffffffffffffff1673ffffffffffffffffffffffffffffffffffffffff163373ffffffffffffffffffffffffffffffffffffffff1614610786576040517f08c379a000000000000000000000000000000000000000000000000000000000815260040161077d906110e4565b60405180910390fd5b806003015442116107cc576040517f08c379a00000000000000000000000000000000000000000000000000000000081526004016107c390611176565b60405180910390fd5b60008160050160146101000a81548160ff0219169083151502179055505050565b600081426107fb9190611007565b90506040518060e001604052806001548152602001858152602001848152602001828152602001600081526020013373ffffffffffffffffffffffffffffffffffffffff16815260200160011515815250600080600154815260200190815260200160002060008201518160000155602082015181600101908161087f9190611342565b5060408201518160020190816108959190611342565b50606082015181600301556080820151816004015560a08201518160050160006101000a81548173ffffffffffffffffffffffffffffffffffffffff021916908373ffffffffffffffffffffffffffffffffffffffff16021790555060c08201518160050160146101000a81548160ff0219169083151502179055509050507f5625a6c5db4545709e44f0b65b1d3e026dccf5419a55818c7f6be6d439006fbe6001548585843360405161094d959493929190611414565b60405180910390a16001600081548092919061096890611475565b919050555050505050565b6000819050919050565b61098681610973565b82525050565b60006020820190506109a1600083018461097d565b92915050565b6000604051905090565b600080fd5b600080fd5b6109c481610973565b81146109cf57600080fd5b50565b6000813590506109e1816109bb565b92915050565b6000602082840312156109fd576109fc6109b1565b5b6000610a0b848285016109d2565b91505092915050565b600081519050919050565b600082825260208201905092915050565b60005b83811015610a4e578082015181840152602081019050610a33565b60008484015250505050565b6000601f19601f8301169050919050565b6000610a7682610a14565b610a808185610a1f565b9350610a90818560208601610a30565b610a9981610a5a565b840191505092915050565b600073ffffffffffffffffffffffffffffffffffffffff82169050919050565b6000610acf82610aa4565b9050919050565b610adf81610ac4565b82525050565b60008115159050919050565b610afa81610ae5565b82525050565b600060e082019050610b15600083018a61097d565b8181036020830152610b278189610a6b565b90508181036040830152610b3b8188610a6b565b9050610b4a606083018761097d565b610b57608083018661097d565b610b6460a0830185610ad6565b610b7160c0830184610af1565b98975050505050505050565b6000602082019050610b926000830184610af1565b92915050565b6000610ba382610aa4565b9050919050565b610bb381610b98565b82525050565b600060c0820190508181036000830152610bd38189610a6b565b90508181036020830152610be78188610a6b565b9050610bf6604083018761097d565b610c03606083018661097d565b610c106080830185610baa565b610c1d60a0830184610af1565b979650505050505050565b600080fd5b600080fd5b7f4e487b7100000000000000000000000000000000000000000000000000000000600052604160045260246000fd5b610c6a82610a5a565b810181811067ffffffffffffffff82111715610c8957610c88610c32565b5b80604052505050565b6000610c9c6109a7565b9050610ca88282610c61565b919050565b600067ffffffffffffffff821115610cc857610cc7610c32565b5b610cd182610a5a565b9050602081019050919050565b82818337600083830152505050565b6000610d00610cfb84610cad565b610c92565b905082815260208101848484011115610d1c57610d1b610c2d565b5b610d27848285610cde565b509392505050565b600082601f830112610d4457610d43610c28565b5b8135610d54848260208601610ced565b91505092915050565b600080600060608486031215610d7657610d756109b1565b5b600084013567ffffffffffffffff811115610d9457610d936109b6565b5b610da086828701610d2f565b935050602084013567ffffffffffffffff811115610dc157610dc06109b6565b5b610dcd86828701610d2f565b9250506040610dde868287016109d2565b9150509250925092565b7f4e487b7100000000000000000000000000000000000000000000000000000000600052602260045260246000fd5b60006002820490506001821680610e2f57607f821691505b602082108103610e4257610e41610de8565b5b50919050565b7f546869732063616d706169676e206973206e6f206c6f6e67657220616374697660008201527f652e000000000000000000000000000000000000000000000000000000000000602082015250565b6000610ea4602283610a1f565b9150610eaf82610e48565b604082019050919050565b60006020820190508181036000830152610ed381610e97565b9050919050565b7f43616d706169676e2068617320656e6465642e00000000000000000000000000600082015250565b6000610f10601383610a1f565b9150610f1b82610eda565b602082019050919050565b60006020820190508181036000830152610f3f81610f03565b9050919050565b7f436f6e747269627574696f6e206d75737420626520677265617465722074686160008201527f6e20302e00000000000000000000000000000000000000000000000000000000602082015250565b6000610fa2602483610a1f565b9150610fad82610f46565b604082019050919050565b60006020820190508181036000830152610fd181610f95565b9050919050565b7f4e487b7100000000000000000000000000000000000000000000000000000000600052601160045260246000fd5b600061101282610973565b915061101d83610973565b925082820190508082111561103557611034610fd8565b5b92915050565b6000606082019050611050600083018661097d565b61105d6020830185610baa565b61106a604083018461097d565b949350505050565b7f4f6e6c79207468652063616d706169676e2063726561746f722063616e20656e60008201527f64207468652063616d706169676e2e0000000000000000000000000000000000602082015250565b60006110ce602f83610a1f565b91506110d982611072565b604082019050919050565b600060208201905081810360008301526110fd816110c1565b9050919050565b7f43616d706169676e2063616e6e6f7420626520656e646564206265666f72652060008201527f74686520646561646c696e652e00000000000000000000000000000000000000602082015250565b6000611160602d83610a1f565b915061116b82611104565b604082019050919050565b6000602082019050818103600083015261118f81611153565b9050919050565b60008190508160005260206000209050919050565b60006020601f8301049050919050565b600082821b905092915050565b6000600883026111f87fffffffffffffffffffffffffffffffffffffffffffffffffffffffffffffffff826111bb565b61120286836111bb565b95508019841693508086168417925050509392505050565b6000819050919050565b600061123f61123a61123584610973565b61121a565b610973565b9050919050565b6000819050919050565b61125983611224565b61126d61126582611246565b8484546111c8565b825550505050565b600090565b611282611275565b61128d818484611250565b505050565b5b818110156112b1576112a660008261127a565b600181019050611293565b5050565b601f8211156112f6576112c781611196565b6112d0846111ab565b810160208510156112df578190505b6112f36112eb856111ab565b830182611292565b50505b505050565b600082821c905092915050565b6000611319600019846008026112fb565b1980831691505092915050565b60006113328383611308565b9150826002028217905092915050565b61134b82610a14565b67ffffffffffffffff81111561136457611363610c32565b5b61136e8254610e17565b6113798282856112b5565b600060209050601f8311600181146113ac576000841561139a578287015190505b6113a48582611326565b86555061140c565b601f1984166113ba86611196565b60005b828110156113e2578489015182556001820191506020850194506020810190506113bd565b868310156113ff57848901516113fb601f891682611308565b8355505b6001600288020188555050505b505050505050565b600060a082019050611429600083018861097d565b818103602083015261143b8187610a6b565b9050818103604083015261144f8186610a6b565b905061145e606083018561097d565b61146b6080830184610baa565b9695505050505050565b600061148082610973565b91507fffffffffffffffffffffffffffffffffffffffffffffffffffffffffffffffff82036114b2576114b1610fd8565b5b60018201905091905056fea2646970667358221220e98b8c80638bbc7f296b5214c365dfc977c703f7f67ef019cc4b0ce96ceb803764736f6c63430008110033",
  "immutableReferences": {},
  "source": "// SPDX-License-Identifier: MIT\r\npragma solidity ^0.8.0;\r\n\r\ncontract Crowdfunding {\r\n    \r\n    struct Campaign {\r\n        uint id;\r\n        string name;\r\n        string description;\r\n        uint deadline;\r\n        uint fundsRaised;\r\n        address payable creator;\r\n        bool active;\r\n    }\r\n\r\n    mapping(uint => Campaign) public campaigns;\r\n    uint public totalCampaigns;\r\n    \r\n    event CampaignCreated(uint id, string name, string description, uint deadline, address creator);\r\n    event ContributionReceived(uint campaignId, address contributor, uint amount);\r\n\r\n    function createCampaign(\r\n        string memory name,\r\n        string memory description,\r\n        uint duration \r\n    ) public {\r\n        uint deadline = block.timestamp + duration; \r\n        campaigns[totalCampaigns] = Campaign({\r\n            id: totalCampaigns,\r\n            name: name,\r\n            description: description,\r\n            deadline: deadline,\r\n            fundsRaised: 0,\r\n            creator: payable(msg.sender),\r\n            active: true\r\n        });\r\n\r\n        emit CampaignCreated(totalCampaigns, name, description, deadline, msg.sender);\r\n        totalCampaigns++;\r\n    }\r\n\r\n    function contribute(uint campaignId) public payable {\r\n        Campaign storage campaign = campaigns[campaignId];\r\n\r\n        require(campaign.active, \"This campaign is no longer active.\");\r\n        require(block.timestamp < campaign.deadline, \"Campaign has ended.\");\r\n        require(msg.value > 0, \"Contribution must be greater than 0.\");\r\n\r\n        campaign.fundsRaised += msg.value;\r\n        campaign.creator.transfer(msg.value); // Transfer the contribution to the campaign creator\r\n\r\n        emit ContributionReceived(campaignId, msg.sender, msg.value);\r\n    }\r\n\r\n    function checkCampaignStatus(uint campaignId) public view returns (bool) {\r\n        Campaign storage campaign = campaigns[campaignId];\r\n        return block.timestamp > campaign.deadline || campaign.fundsRaised >= 100 ether; \r\n    }\r\n\r\n    function getCampaignDetails(uint campaignId) public view returns (\r\n        string memory name,\r\n        string memory description,\r\n        uint deadline,\r\n        uint fundsRaised,\r\n        address creator,\r\n        bool active\r\n    ) {\r\n        Campaign storage campaign = campaigns[campaignId];\r\n        return (\r\n            campaign.name,\r\n            campaign.description,\r\n            campaign.deadline,\r\n            campaign.fundsRaised,\r\n            campaign.creator,\r\n            campaign.active\r\n        );\r\n    }\r\n    \r\n    function endCampaign(uint campaignId) public {\r\n        Campaign storage campaign = campaigns[campaignId];\r\n        require(msg.sender == campaign.creator, \"Only the campaign creator can end the campaign.\");\r\n        require(block.timestamp > campaign.deadline, \"Campaign cannot be ended before the deadline.\");\r\n\r\n        campaign.active = false;\r\n    }\r\n}\r\n",
  "sourcePath": "C:\\Users\\DELL\\Desktop\\bchain\\crowd\\contracts\\crowd.sol",
  "compiler": {
    "name": "solc",
    "version": "0.8.17+commit.8df45f5f.Emscripten.clang"
  },
  "schemaVersion": "3.4.16",
  "updatedAt": "2024-11-10T12:57:34.726Z",
  "networkType": "ethereum",
  "devdoc": {
    "kind": "dev",
    "methods": {},
    "version": 1
  },
  "userdoc": {
    "kind": "user",
    "methods": {},
    "version": 1
  }
}